:1000000009308A00A4290000FF00030E8301A1002B
:100010000A08A0008A010408A2007708A300780853
:10002000A4007908A5007A08A60003170D08031399
:10003000A70003170F080313A80003170C080313E6
:10004000A90003170E080313AA00831383128C3030
:100050008400801E2D288C1A54288C308400001CAB
:1000600033280C185728220884002308F700240896
:10007000F8002508F9002608FA00270803178D0064
:100080000313280803178F000313290803178C0094
:1000900003132A0803178E00031320088A00210E79
:1000A0008300FF0E7F0E09008A110A127C288A1134
:1000B0000A125A28D50A8E010B308F00DC308E00D0
:1000C00000000C108A110A12332883164008F80128
:1000D0003F0203186E283F08F7007A28F70108301E
:1000E000C100BF0DF70D400877020318F700F80DA7
:1000F000C10B712883120800333053078400831327
:100100008C1E80281A08800053088316BC0001301A
:10011000831253078316BE00BF000B30C00083124A
:1001200065207708D30054085302031D9B288316CB
:100130003C088312D3008C128A110A123328D02073
:10014000D3293A0057294F274710D020D329D72742
:10015000522200004326CF294500C2224C2600012E
:100160004324D527CE2300010C1074346510E837E2
:100170007010EC320001F8346E10ED376910F63073
:100180006F00D320491054244500D7205227492717
:10019000C710A11000010C004F284527000132179D
:1001A000A025C827411020103317522349220001EF
:1001B000C32A4110C420CE23A0264F004E346138FC
:1001C000A036613AA035E83075005039E539731032
:1001D0003110F4372031EC37E33500018C182E1044
:1001E0005434E536203AE83200013217202CEF3043
:1001F000203AE83200010C10D13A653A203AE83250
:10020000A036EF3400010C1054346510E430203A6D
:10021000E8326D000C10D827CE2300010C10D13A23
:10022000653A203AE832A0316137203CEF300001D6
:100230000C10C430203CEF3000018C25E837EE3341
:10024000A0316F1074346510EE3079005039E53903
:1002500073103110F4372031EC37E335000007110B
:100260002C112C088316870083128710AC102C08E1
:10027000831687000310340D7E39B7000830B600AE
:10028000B6080319622937088039803C03194C29C4
:10029000831287114E29831683128715AC112C08FF
:1002A00083168700831207152C112C0883168700EC
:1002B0000310B70D831207112C112C088316870029
:1002C000B60340290830B600B60803198629350858
:1002D0008039803C03197029831287117229831693
:1002E00083128715AC112C0883168700831207151B
:1002F0002C112C08831687000310B50D83120711EB
:100300002C112C0883168700B603642983128714E6
:10031000AC102C0883168700831207152C112C08AB
:1003200083168700831208008316B6018312071113
:100330002C112C088316870083128710AC102C0810
:10034000831687000310330D7E398038B5000830DE
:10035000B400B4080319CB2935088039803C03194F
:10036000B52983128711B729831683128715AC111B
:100370002C0883168700831207152C112C0883166E
:1003800087000310B50D831207112C112C0883165A
:100390008700B403A9290830B400B4080319EB2975
:1003A000831207152C112C08831687000310B60D35
:1003B00083122C162C088316870000308312071A2C
:1003C00001308316B604831207112C112C088316F2
:1003D0008700B403CD2983128714AC102C08831630
:1003E0008700831207152C112C0883168700360806
:1003F000F800831208008316B2013008B30083129C
:10040000942178088316B2003108FF3A3205B30010
:100410003008B4003308B50083122F21080083167A
:10042000B2013008B3008312942178088316B20019
:1004300032083104B3003008B4003308B500831229
:100440002F2108008714AC102C0883168700831214
:100450008716AC122C088316870083128716AC12FD
:100460002C0883168700342A352A0000831287124D
:10047000AC122C08831687003D2A3E2A0000831206
:100480008716AC122C0883168700462A472A0000DC
:100490000130B4000F30B50083122F214F2A502AAB
:1004A00000002A308316B4008D30B50083122F214E
:1004B0002B308316B4003E30B50083122F212D302F
:1004C0008316B4001E30B50083122F212C30831602
:1004D000B400B50183122F2115308316B4004030CB
:1004E000B50083122F2111308316B4003D30B500C2
:1004F00083122F2114308316B0000330B100831211
:10050000FB2114308316B300831294217808F40081
:1005100014308316B0000330B10083120F228A1505
:100520000A12D129A4308400831300080319A52AD4
:100530000630F800F701F70B9B2AF80B9A2A7B305C
:10054000F700F70BA12A800B982A080083162B0EC0
:10055000F039F7000F308312080577048800000097
:1005600008140330F700F70BB32A08100800080836
:10057000F700080E0F39F8000800831608108810DD
:100580000811831288100F3083160805F038880090
:1005900083120815000008140000B722780883169B
:1005A000AB008312081000000814D62AD72A0000D6
:1005B000B72278088316AA00831208100F3083161A
:1005C000080588002B0EF700F030F70577082A049D
:1005D000F8007808AA00AA1FEF2A8312C32A281855
:1005E000F42A831288108316281CF92A831288148F
:1005F0008316000083120811000008108316290ECC
:10060000AA000F30AA052A08AB008312A62283167F
:1006100029080F39AA00AB008312A622080028304F
:10062000FB000C30FC000130FD000630FE0008101D
:10063000881008110F3083160805880008108810EC
:1006400008110F30A400831292220130F4007408C4
:10065000033C031C372B03308316AB008312A62206
:1006600005308316A40083129222F40A272B02304D
:100670008316AB008312A62205308316A4008312D2
:100680009222F4017408033C031C542B7B30740742
:10069000840083130008F5008316A8017508A900DB
:1006A0008312BD22F40A422B8A150A12D42983161A
:1006B000250B5B2B5E2B4030A6005F2BA601013083
:1006C0002402A60726088038A700A8012708A90049
:1006D0008312BD22080083162308073A83120319E8
:1006E0007B2B0B3A0319822B063A03198E2B023A05
:1006F0000319962B9D2B01308316A400A5008312AD
:100700005723A42B8316A8010130A9008312BD2210
:1007100002308316A40083129222A42B0130831688
:10072000A4000230A50083125723A42B8316A8012E
:100730001030A9008312BD22A42B01308316A8001B
:100740002308A9008312BD2208000B08FB008B13AD
:10075000831603178C170C1400000000FB1FB52B29
:10076000831203138B178316031783120C087F3928
:100770000319F52BFB000D08FC000F08FD007B089A
:1007800003130C1EC12B99007C0803178D007D08F4
:100790008F0003130B08FE008B13831603178C17AF
:1007A0000C1400000000FE1FDA2B831203138B17BA
:1007B0008316031783120C0D0E0D7F390319F52BC9
:1007C000FB000D08FC000F08FD007B0803130C1E46
:1007D000E72B99007C0803178D007D088F008D0A98
:1007E00003198F0A0313A52B03170313080083169D
:1007F0000612831206128316861283128616831639
:100800000613831206178316861383128617831620
:10081000061483120618112C64308316A400831268
:10082000922283160614831206181A2C4430F800FC
:10083000692D112C8316861483128618242C64309B
:100840008316A400831292228316861483128618BC
:100850002D2C4330F800692D242C831606158312A5
:100860000619372C64308316A40083129222831653
:10087000061583120619402C4230F800692D372CDA
:1008800083168615831286194A2C64308316A400B9
:10089000831292228316861583128619532C4130B7
:1008A000F800692D4A2C8316061283120616831649
:1008B0008612831286128316061383120617831676
:1008C00086138312861783160614831206186D2C5E
:1008D00064308316A40083129222831606148312B6
:1008E0000618762C2330F800692D6D2C831686149B
:1008F00083128618802C64308316A40083129222FF
:100900008316861483128618892C3930F800692DD5
:10091000802C8316061583120619932C64308316D7
:10092000A4008312922283160615831206199C2CAA
:100930003630F800692D932C83168615831286199C
:10094000A62C64308316A400831292228316861587
:1009500083128619AF2C3330F800692DA62C83162C
:1009600006128312061683168612831286168316C3
:1009700006138312061383168613831286178316B3
:10098000061483120618C92C64308316A40083123F
:1009900092228316061483120618D22C3030F800E7
:1009A000692DC92C8316861483128618DC2C6430BA
:1009B0008316A4008312922283168614831286184B
:1009C000E52C3830F800692DDC2C831606158312CF
:1009D0000619EF2C64308316A4008312922283162A
:1009E000061583120619F82C3530F800692DEF2C06
:1009F0008316861583128619022D64308316A4008F
:100A00008312922283168615831286190B2D32309B
:100A1000F800692D022D831606128312061683161E
:100A20008612831286168316061383120617831600
:100A30008613831286138316061483120618252D37
:100A400064308316A4008312922283160614831244
:100A500006182E2D2A30F800692D252D83168614B0
:100A600083128618382D64308316A40083129222D4
:100A70008316861483128618412D3730F800692DAD
:100A8000382D83160615831206194B2D64308316F4
:100A9000A400831292228316061583120619542D80
:100AA0003430F800692D4B2D831686158312861974
:100AB0005E2D64308316A40083129222831686155D
:100AC00083128619672D3130F800692D5E2D6E3046
:100AD000F80008000B088316A00083128B138316FE
:100AE00003178C170C14000000000313A01F7B2DAC
:100AF00083128B178316831203170C087F3903198F
:100B0000DC2D83160313A000831203170D08831630
:100B10000313A100831203170F0883160313A20007
:100B20002008A30083126B23831621088312031766
:100B30008D00831603132208831203178F000313FB
:100B40000B088316A30083128B13831603178C17CD
:100B50000C14000000000313A31FB12D83128B1788
:100B60008316831203170C0D0E0D7F390319DC2D2C
:100B700083160313A000831203170D0883160313B3
:100B8000A100831203170F0883160313A200200885
:100B9000A30083126B2383162108831203178D0091
:100BA000831603132208831203178F008D0A03197B
:100BB0008F0A03136A2D0317031308005408530206
:100BC0000319DE2D33305407840083130008F60028
:100BD00001305407FC00AB018B1BAB178B137C0857
:100BE0008316BF000B30C00083126520AB1B8B1730
:100BF0007708D4007608F8008A150A125E2A0230B7
:100C00008316AA00AB01AC0122080E3A8312031925
:100C10000D2E023A0319142E1B2E12308316AB0030
:100C20001030AC001C2E831277308316AB003030AE
:100C3000AC001C2E831283162B088038B0000230C3
:100C4000B4003008B50083122F2104308316B000A1
:100C50008030B1008312FB210A308316B00080304F
:100C6000B10083120F2201308316B400B501831244
:100C70002F218316AF0125082F020318502E2F08AD
:100C8000230784008313241883170008B000093059
:100C9000B4003008B50083122F218316AF0A3B2E13
:100CA0000130B4002208B50083122F2183162208D8
:100CB0000C3C031D622E0D30B0008030B100831259
:100CC0000F228316FF30AF000430B300831294214B
:100CD00078088316AE00AF03AF080319752E2E18DF
:100CE000752E2E082C050319642E0D30B0008030AF
:100CF000B1008312FB218316AF080319F92E0630C9
:100D0000B3008312942178081B39031DF62E831635
:100D1000AA012E082B0501390319902E0130AA00D3
:100D200022080C3C031DF42E0A30B30083129421D8
:100D300078088316AE000C30B30083129421780833
:100D400007398316AD00AD080319B72E28088400B3
:100D500083132918831701302E02F700F70DF70DC2
:100D6000F70DF830F70577082D078000C42E280806
:100D700084008313291883172E0DF700F70DF70D44
:100D8000F830F70577088000AE08031DC92E013042
:100D9000AE002E08103C0318CF2E1030AE00AF016D
:100DA0002E082F020318ED2E2F082607F80027081B
:100DB000FA000318FA0A7808B0007A08B10009307E
:100DC000B3008312942183163008840083133118F2
:100DD000831778088000AF0AD02E2F0826078400DA
:100DE0008313271883178001F92E8312023083168C
:100DF000AA002A08F800831208002630F6007508B9
:100E0000FC007408FB000D308316B4000730B500F9
:100E100083122F217B08840083137C1883177608A4
:100E200080000C308316A2007C08A4007B08A3007D
:100E30000130A5007C08A7007B08A600A9017E3030
:100E4000A8008312FF257808FD00FD08031D2C2F44
:100E50007E08103C03192E2F0230FD007D08F8009B
:100E6000F808031D372F0130F800392F392F0030D3
:100E7000F80008007508FC007408FB008316A00148
:100E80000D30B400B50183122F217B088400831339
:100E90007C1883179330800001307B078400831314
:100EA0007C1883172030800008308316B000B10012
:100EB0008312FB210C308316A2007C08A4007B085F
:100EC000A3000230A5007C08A7007B08A600A901AA
:100ED000A130A8008312FF257808FD00FD08031D3E
:100EE000902FFE017E08033C031C822F7E087B07A7
:100EF000840083137C18831700088316A006FE0A5B
:100F00008312722F04307B07840083137C188317AD
:100F100000088316200203198F2F0230FD00831270
:100F20007D08F8007808F600053074078400831304
:100F3000751883178001F608031DA22F0130F800F1
:100F4000A42FA42F0030F80008000630FB007B0817
:100F5000143C031CD32FF6017608043C031CCC2F51
:100F60007B087607FC007C0803178D0083168C1322
:100F70000C1483120C08FC00760874078400831399
:100F80007518831700087C020319C92F0313CC2F8F
:100F90000317F60A0313AC2F7608053C0319D32F69
:100FA0000530FB07A72F7608053C031DDB2F01301A
:0C0FB000F800DD2FDD2F0030F8000800F5
:101000008316A0017D08200203182D28A1017E0867
:10101000210203181C2883122C102C088316870029
:101020008312071401308316A4008A1183129222BE
:101030008A158316A10A072883122C102C08831600
:101040008700831207100A308316A4008A118312C6
:1010500092228A158316A00A022883120800FC0136
:101060007C08023C031CD9280C308316A3008A118B
:1010700083126B238A1501308316A400A5008A1100
:10108000831257238A159F3003178D0000308F007D
:101090008A1103136A258A1504308316A4000230CE
:1010A000A5008A11831257238A158A11F7238A15FE
:1010B0008A11F7238A157808F40074086E3C031926
:1010C000552874088316A3008A1183126B238A158E
:1010D0008A11F7238A158A11F7238A157808F500F3
:1010E00075086E3C0319682875088316A3008A11D9
:1010F00083126B238A157508233C031934288A113F
:10110000F7238A158A11F7238A157808F6007608DE
:101110006E3C03197F2876088316A3008A11831278
:101120006B238A157608233C031934288A11F72388
:101130008A158A11F7238A157808FB007B086E3C14
:10114000031996287B088316A3008A1183126B2348
:101150008A157508233C031934288A11F7238A1548
:101160008A11F7238A1578082A3C0319BE288A11A8
:10117000F7238A157808233C031DAD288A11F7232D
:101180008A157808233C0319342857087402031D74
:10119000D72858087502031DD72859087602031D61
:1011A000D7285A087B02031DD7285614D928FC0AD1
:1011B00030287C08033C031D01290C308316A30052
:1011C0008A1183126B238A1502308316A400013022
:1011D000A5008A11831257238A15A23003178D00A8
:1011E00000308F008A1103136A258A150A30FD002A
:1011F000FE0000208A11F7238A157808233C031D7E
:10120000E42808000630FB007B08143C031C4B2933
:10121000F6017608043C031C44297B087607FC0091
:101220007C0803178D0083168C130C1483120C0892
:10123000FF3C031D40297B087607FC0076087407F5
:1012400084008313751883170008FD0003130B082F
:10125000F7008B137C0803178D007D088C00831624
:101260008C130C1555308D00AA308D008C148C1801
:1012700037290C117708831203138B0442290317B3
:1012800003134429F60A09297608053C03194B295A
:101290000530FB0704298A150A12C62D0630FB000B
:1012A0007B08143C031CA129F6017608043C031CAE
:1012B00075297B087607FC007C0803178D008316D0
:1012C0008C130C1483120C08FC007608740784003D
:1012D00083137518831700087C02031972290313FE
:1012E00075290317F60A031355297608053C031DD3
:1012F0009A29F6017608043C031C9A297B08760794
:10130000FC000B08F7008B137C0803178D00FF30DF
:101310008C0083168C130C1555308D00AA308D006F
:101320008C148C1891290C117708831203138B04E9
:10133000F60A7A297608053C0319A1290530FB072E
:1013400050298A150A12002E03081F398300FF3026
:10135000AC000A3083169900A630980090308312B2
:101360009800D301D4015610DC01DB0183161F1451
:101370009F141F159F1107309C0083138312AD012A
:10138000AE01B530900083160C148C16C030831259
:101390008B048E010B308F00DC308E0000008A1130
:1013A000222A8A158A110F2B8A150C308316A30066
:1013B0008A1183126B238A153130DD00DE00DF00D5
:1013C000E0000C30F400FA308316A4008A11831276
:1013D00092228A15F40BE329561083168811831282
:1013E0008811AA3003178D0000308F008A11031373
:1013F000A5238A150C308316A3008A1183126B2350
:101400008A15561083168811831288110C308316A2
:10141000A3008A1183126B238A158A11F7238A1578
:101420008A11F7238A157808E100831605158312BF
:10143000051D402AAD3003178D0000308F008A1142
:101440000313A5238A1503308316A4000230A500D8
:101450008A11831257238A15B03003178D0000308C
:101460008F008A1103136A258A150830F400FA30B8
:101470008316A4008A11831292228A15F40B372A4C
:1014800083160514831205185614540853020319C1
:10149000742AF30173080A3C031C742A540853028B
:1014A0000319722A69307307F800FA010318FA0A5F
:1014B0007808F4007A08F5008A11DE2D8A15740880
:1014C00084008313751883177808800069307307C8
:1014D000840083130008F4008316A3008A1183128A
:1014E0006B238A15F30A4A2A01308316A400A5004B
:1014F0008A11831257238A1569088316A3008A115B
:1015000083126B238A156A088316A3008A1183123B
:101510006B238A156B088316A3008A1183126B2331
:101520008A156C088316A3008A1183126B238A150F
:101530006D088316A3008A1183126B238A156E0827
:101540008316A3008A1183126B238A156F088316F2
:10155000A3008A1183126B238A1570088316A300D7
:101560008A1183126B238A1571088316A3008A11CE
:1015700083126B238A1572088316A3008A118312C3
:101580006B238A1573088316A3008A1183126B23B9
:101590008A156A082F3C0318E12A6A08393C031CA3
:1015A000E12A6B082F3C0318E12A6B08393C031C25
:1015B000E12A6A08D7006B08D8006C08D9006D08CA
:1015C000DA006E084F3C031D0A2B6F08503C031DC8
:1015D0000A2B7008453C031D0A2B71084E3C031D65
:1015E0000A2B72084E3C031D0A2B56146E08433C0E
:1015F000031D092B6F084C3C031D092B70084F3C41
:10160000031D092B7108533C031D092B7208453C2F
:10161000031D0030F5016830F4008A11FD268A159B
:10162000F8080319872BF5016230F4008A113A2774
:101630008A15F8080319872BF5016230F4008A1126
:10164000A5278A15F8080319502B0330FD00FE006A
:101650000020B43003178D0000308F008A1103136F
:101660006A258A158316A4010230A5008A11831207
:1016700057238A15BB3003178D0000308F008A1165
:1016800003136A258A150430F400FA308316A40087
:101690008A11831292228A15F40B452B5614872B3C
:1016A0000C308316A3008A1183126B238A158316CC
:1016B000A4010130A5008A11831257238A15C13075
:1016C00003178D0000308F008A1103136A258A15D5
:1016D00004308316A4000230A5008A118312572318
:1016E0008A15C53003178D0000308F008A1103134F
:1016F0006A258A151430FD000A30FE0000200C30E7
:101700008316A3008A1183126B238A155610610871
:10171000313C031DD92B01308316A4000230A500F3
:101720008A11831257238A1569088316A3008A1128
:1017300083126B238A156A088316A3008A11831209
:101740006B238A156B088316A3008A1183126B23FF
:101750008A156C088316A3008A1183126B238A15DD
:10176000013003178D0083168C130C1483120C08A0
:101770000313D700023003178D0083168C130C144B
:1017800083120C080313D800033003178D0083164F
:101790008C130C1483120C080313D90004300317A4
:1017A0008D0083168C130C1483120C080313DA00BB
:1017B0002F206108323C031DE12B6A08463C031DC3
:1017C0002F20561C062A8316881183128815CB30C9
:1017D00003178D0000308F008A1103136A258A15C4
:1017E0000830F400FA308316A4008A118312922282
:1017F0008A15F40BF22B8316881183128811831635
:1018000085168312851E012ACC3003178D00003007
:101810008F008A110313A5238A15D501D5018A11DA
:10182000F7238A158A11F7238A157808E100013019
:101830008316A4000230A5008A11831257238A154B
:10184000CF3003178D0000308F008A1103136A25F3
:101850008A155508643C03184B2C83168516831291
:10186000851E4A2C3230FD000A30FE000020D501D2
:1018700001308316A400A5008A11831257238A150C
:10188000D83003178D0000308F008A1103136A25AA
:101890008A154B2C56106108313C0319592C6108EC
:1018A000323C0319592C6108333C0319592C561842
:1018B0000F2C6108313C031D592D0C308316A300F9
:1018C0008A1183126B238A15DE3003178D000030D6
:1018D0008F008A1103136A258A150430F400FA3048
:1018E0008316A4008A11831292228A15F40B6F2C9E
:1018F0000C308316A3008A1183126B238A158A1178
:10190000F7238A158A11F7238A157808DD005D0808
:101910006E3C03197F2C5D088316A3008A11831285
:101920006B238A150B08F7008B13013003178D000A
:1019300003135D0803178C0083168C130C155530A8
:101940008D00AA308D008C148C18A42C0C117708F3
:10195000831203138B048A11F7238A158A11F72344
:101960008A157808DE005E086E3C0319AB2C5E0811
:101970008316A3008A1183126B238A150B08F700C4
:101980008B13023003178D0003135E0803178C00BE
:1019900083168C130C1555308D00AA308D008C14D5
:1019A0008C18D02C0C117708831203138B048A1126
:1019B000F7238A158A11F7238A157808DF005F0854
:1019C0006E3C0319D72C5F088316A3008A1183127B
:1019D0006B238A150B08F7008B13033003178D0058
:1019E00003135F0803178C0083168C130C155530F6
:1019F0008D00AA308D008C148C18FC2C0C117708EB
:101A0000831203138B048A11F7238A158A11F72393
:101A10008A157808E00060086E3C0319032D600801
:101A20008316A3008A1183126B238A150B08F70013
:101A30008B13043003178D000313600803178C0009
:101A400083168C130C1555308D00AA308D008C1424
:101A50008C18282D0C117708831203138B04043083
:101A6000F400FA308316A4008A11831292228A1598
:101A7000F40B312D0C308316A3008A1183126B23D3
:101A80008A15E53003178D0000308F008A1103138B
:101A90006A258A158A11F7238A158A11F7238A1570
:101AA0007808E1006108313C031D4A2D3230D50031
:101AB000332E6108333C031D332EEE3003178D00A7
:101AC00000308F008A1103136A258A1501308316AE
:101AD000A4000230A5008A11831257238A15F5301D
:101AE00003178D0000308F008A1103136A258A15B1
:101AF0008A11F7238A158A11F7238A157808E100DD
:101B00006108313C0319882D6108323C031D782D92
:101B10006108313C031DD82DFB3003178D000030C8
:101B20008F008A1103136A258A15F5016830F400C5
:101B30008A11FD268A15780B952DF5016230F40087
:101B40008A113A278A150A30FD00FE000020F501AF
:101B50006230F4008A11A5278A15F8080319C22DEE
:101B600001308316A400A5008A11831257238A1519
:101B7000033003178D0001308F008A1103136A258B
:101B80008A15D72DF5016230F40002290130831641
:101B9000A400A5008A11831257238A150A3003175F
:101BA0008D0001308F008A1103136A258A15132EC8
:101BB0000E3003178D0001308F008A1103136A2540
:101BC0008A15F5016830F4008A11FD268A15780B14
:101BD000E12DF5016230F4008A113A278A150A30A6
:101BE000FD00FE000020F5016230F4008A11A527F7
:101BF0008A15F80803190A2EF5016230F4004E29FF
:101C0000183003178D0001308F008A1103136A25E5
:101C10008A15132E1D3003178D0001308F008A1195
:101C200003136A258A1501308316A4000230A5002B
:101C30008A11831257238A15263003178D0001302D
:101C40008F008A1103136A258A158A11F7238A15D2
:101C50008A11F7238A157808E1006108313C031DD9
:0E1C6000252E3230D50056180E2CEC296300CC
:02400E00323F3F
:00000001FF
;PIC16F877A
;CRC=18F2  CREATED="20-May-23 16:09"
